:100000000C945D000C9485000C9485000C94850084
:100010000C9485000C9485000C9485000C9485004C
:100020000C9485000C9485000C9485000C9485003C
:100030000C9485000C9485000C9485000C9485002C
:100040000C9402030C9485000C9472030C944C03E2
:100050000C9485000C9485000C9485000C9485000C
:100060000C9485000C94850000000008000201003B
:100070000003040700000000000000000000000072
:10008000250028002B0000000000240027002A0083
:10009000040404040404040402020202020203032E
:1000A0000303030301020408102040800102040836
:1000B0001020010204081020250511241FBECFEFD7
:1000C000D8E0DEBFCDBF21E0A4E4B1E001C01D92C5
:1000D000AE3FB207E1F711E0A0E0B1E0E4EAFFE0F3
:1000E00002C005900D92A434B107D9F710E0CDE518
:1000F000D0E004C02197FE010E94D805CC35D1077D
:10010000C9F70E94A4030C94D0070C940000AF928E
:10011000BF92CF92DF92EF92FF920F931F93CF93F4
:10012000DF936C017B018B01040F151FEB015E0156
:10013000AE18BF08C017D10759F06991D601ED91EB
:10014000FC910190F081E02DC6010995892B79F78A
:10015000C501DF91CF911F910F91FF90EF90DF903C
:10016000CF90BF90AF900895FC01538D448D252F03
:1001700030E0842F90E0821B930B541710F0CF9641
:10018000089501970895FC01918D828D981761F073
:10019000A28DAE0FBF2FB11D5D968C91928D9F5F8A
:1001A0009F73928F90E008958FEF9FEF0895FC0169
:1001B000918D828D981731F0828DE80FF11D858D1C
:1001C00090E008958FEF9FEF08952FB7F8948091F6
:1001D000590190915A01A0915B01B0915C012FBF30
:1001E0008093650190936601A0936701B0936801C5
:1001F0008DE591E00E94D70097FF26C02FB7F894B5
:100200008091590190915A01A0915B01B0915C01DC
:100210002FBF409165015091660160916701709117
:100220006801841B950BA60BB70B4091610150919F
:100230006201609163017091640184179507A607BC
:10024000B707B0F28FEF9FEF0895FC01918D228DDB
:10025000892F90E0805C9F4F821B91098F739927B3
:1002600008958DE591E00E94250121E0892B09F494
:1002700020E0822F089580E090E0892B29F00E94F1
:10028000310181110C9400000895FC01A48DA80F88
:10029000B92FB11DA35ABF4F2C91848D90E00196C8
:1002A0008F739927848FA689B7892C93A089B189E8
:1002B0008C91837080648C93938D848D981306C089
:1002C0000288F389E02D80818F7D80830895EF92ED
:1002D000FF920F931F93CF93DF93EC0181E0888F00
:1002E0009B8D8C8D98131AC0E889F989808185FFD0
:1002F00015C09FB7F894EE89FF896083E889F98972
:1003000080818370806480839FBF81E090E0DF9173
:10031000CF911F910F91FF90EF900895F62E0B8DC6
:1003200010E00F5F1F4F0F731127E02E8C8D8E1181
:100330000CC00FB607FCFACFE889F989808185FFE8
:10034000F5CFCE010E944501F1CFEB8DEC0FFD2FD3
:10035000F11DE35AFF4FF0829FB7F8940B8FEA89A3
:10036000FB8980818062CFCFCF93DF93EC01888DB2
:100370008823B9F0AA89BB89E889F9898C9185FD20
:1003800003C0808186FD0DC00FB607FCF7CF8C91AE
:1003900085FFF2CF808185FFEDCFCE010E94450120
:1003A000E9CFDF91CF91089590E0FC01E859FF4F2C
:1003B0002491FC01EC55FF4F3491FC01E057FF4FB5
:1003C000E491EE23C9F0222339F0233001F1A8F49F
:1003D000213019F1223029F1F0E0EE0FFF1FE4582F
:1003E000FF4FA591B4918FB7F894EC91611126C09D
:1003F00030953E233C938FBF08952730A9F02830D5
:10040000C9F0243049F7809180008F7D03C080912E
:1004100080008F7780938000DFCF84B58F7784BD95
:10042000DBCF84B58F7DFBCF8091B0008F77809339
:10043000B000D2CF8091B0008F7DF9CF3E2BDACFC4
:1004400042E050E068E171E08DE591E00C948700B6
:10045000CF93DF93FC0144815581608171818DE5EB
:1004600091E00E948700EC010E9420028C0F9D1FEA
:10047000DF91CF9108950F931F93CF93DF93EC01FA
:1004800088819981009759F02A813B812617370787
:1004900030F081E0DF91CF911F910F9108958B0192
:1004A0006F5F7F4F0E940307009759F099838883FD
:1004B0001B830A832C813D81232B59F7FC01108279
:1004C000E8CF80E0E7CFEF92FF920F931F93CF9397
:1004D000DF936115710541F480E0DF91CF911F91A9
:1004E0000F91FF90EF90089541155105B1F07B01F8
:1004F000EC010C811D81040F151FB8010E943B0205
:10050000882351F3288139818C819D81B701820F25
:10051000931F0E94C9071D830C8381E0DECFCF9318
:10052000DF93EC0188819981009711F00E947A068F
:10053000198218821D821C821B821A82DF91CF9140
:100540000895EF92FF920F931F93CF93DF93EC01E7
:100550007B018A01BA010E943B0281110BC0CE01CE
:100560000E948F02CE01DF91CF911F910F91FF90DA
:10057000EF9008951D830C83B701888199810E94B3
:10058000C907F0CFEF92FF920F931F93CF93DF93A2
:10059000CDB7DEB762970FB6F894DEBF0FBECDBF02
:1005A0008C01CB01F8011182108213821282158214
:1005B00014824AE09E012F5F3F4F7901B9010E94EA
:1005C0005205F70101900020E9F73197AF014E196C
:1005D0005F09B701C8010E94A10262960FB6F894A4
:1005E000DEBF0FBECDBFDF91CF911F910F91FF9066
:1005F000EF900895FC0180819181009711F00C9497
:100600007A0608951F920F920FB60F9211242F931E
:100610003F938F939F93AF93BF9380915901909194
:100620005A01A0915B01B0915C013091580123E027
:10063000230F2D3758F50196A11DB11D20935801A8
:100640008093590190935A01A0935B01B0935C0190
:100650008091540190915501A0915601B09157019C
:100660000196A11DB11D8093540190935501A09353
:100670005601B0935701BF91AF919F918F913F91D8
:100680002F910F900FBE0F901F90189526E8230F03
:100690000296A11DB11DD2CF1F920F920FB60F92DD
:1006A00011242F933F934F935F936F937F938F9377
:1006B0009F93AF93BF93EF93FF938DE591E00E94DB
:1006C0004501FF91EF91BF91AF919F918F917F91E4
:1006D0006F915F914F913F912F910F900FBE0F90AF
:1006E0001F9018951F920F920FB60F9211242F93FF
:1006F0008F939F93EF93FF93E0916D01F0916E01C3
:100700008081E0917301F091740182FD1BC09081A2
:10071000809176018F5F8F7320917701821741F06E
:10072000E0917601F0E0E35AFE4F958F80937601D9
:10073000FF91EF919F918F912F910F900FBE0F908E
:100740001F9018958081F4CFCF93DF93CDB7DEB79C
:100750002C970FB6F894DEBF0FBECDBF789484B54A
:10076000826084BD84B5816084BD85B5826085BDAD
:1007700085B5816085BD80916E00816080936E003B
:10078000109281008091810082608093810080912D
:1007900081008160809381008091800081608093DE
:1007A00080008091B10084608093B1008091B0009E
:1007B00081608093B00080917A00846080937A0099
:1007C00080917A00826080937A0080917A008160C3
:1007D00080937A0080917A00806880937A001092EA
:1007E000C100E0916D01F0916E0182E08083E091A3
:1007F0006901F0916A011082E0916B01F0916C0146
:100800008FEC808310927501E0917101F09172017B
:1008100086E08083E0916F01F091700180818061BA
:100820008083E0916F01F091700180818860808306
:10083000E0916F01F0917001808180688083E09188
:100840006F01F091700180818F7D808330E020E026
:10085000F901EC55FF4F4491F901E057FF4F8491A6
:10086000882399F090E0880F991FFC01EA57FF4F09
:10087000A591B491FC01E458FF4F859194918FB7F5
:10088000F894EC91E42BEC938FBF2F5F3F4F28300F
:100890003105F1F6AA24A394B12C00E010E08DE517
:1008A00091E00E942501892B09F464C00E94E500B3
:1008B000FC0197FD73C08D32910521F0C0970A9716
:1008C00008F064C0C12CD12C7601912CE130F105E7
:1008D000D9F0ED32F10509F45EC0CF01C0970A9757
:1008E00098F4AAE0B0E0A70196010E9487056F0185
:1008F000FF0FEE08FF08C60ED71EE81EF91E80E3A4
:10090000C81AD108E108F1088DE591E00E94C30002
:100910000E94E500FC01C0970A97C0F2E130F105A2
:10092000A9F2992041F0F094E094D094C094C11CB5
:10093000D11CE11CF11CE9E0CE16D10499F594E438
:10094000C92E91E0D92EF12CF601119211926F016E
:1009500060E08F2D0E94D401F394F8E0FF12F4CFF1
:1009600048E150E06BE171E08DE591E00E94870085
:100970000E9420020115110509F491CF0E94310156
:10098000882309F48CCF0E94000089CF8DE591E087
:100990000E94C3008BCF99249394B6CFC12CD12C45
:1009A0007601C9CFF601EE0FFF1FEC5BFE4F808191
:1009B0009181892BA1F5B182A08261E08C2D0E94EA
:1009C000D401B601CE0107960E94C2021A82198292
:1009D0001C821B821E821D824CE050E067E371E0A6
:1009E000CE0101960E94A1024B855C856F817885BE
:1009F000CE0101960E946302811104C0CE010196CE
:100A00000E948F02CE0101960E942802CE0101961B
:100A10000E94FA02CE0107960E94FA02ABCF118221
:100A2000108260E08C2D0E94D401B601CE010796A1
:100A30000E94C2021A8219821C821B821E821D829F
:100A40004FE050E064E371E0CBCFEDE5F1E01382DD
:100A5000128288EE93E0A0E0B0E084839583A683C1
:100A6000B7838AE091E09183808385EC90E095875D
:100A7000848784EC90E09787868780EC90E0918B68
:100A8000808B81EC90E0938B828B82EC90E0958B55
:100A9000848B86EC90E0978B868B118E128E138E52
:100AA000148E0895BB274A3031F4992322F4BDE215
:100AB000909581959F4F0C945E05BB27FB015527B0
:100AC000AA27880F991FAA1FA41710F0A41B8395AB
:100AD0005051B9F7A05DAA3308F0A95DA193009722
:100AE00079F7B111B1931192CB010C947705DC0128
:100AF000FC01672F71917723E1F7329704C07C9155
:100B00006D9370836291AE17BF07C8F308950E947A
:100B1000C905A59F900DB49F900DA49F800D911DB8
:100B2000112408952F923F924F925F926F927F927D
:100B30008F929F92AF92BF92CF92DF92EF92FF92ED
:100B40000F931F93CF93DF93CDB7DEB7CA1BDB0B99
:100B50000FB6F894DEBF0FBECDBF09942A8839883E
:100B600048885F846E847D848C849B84AA84B98445
:100B7000C884DF80EE80FD800C811B81AA81B98151
:100B8000CE0FD11D0FB6F894DEBF0FBECDBFED0165
:100B90000895A29FB001B39FC001A39F700D811D56
:100BA0001124911DB29F700D811D1124911D089576
:100BB000EE0FFF1F0590F491E02D09940F931F9302
:100BC000CF93DF938230910510F482E090E0E091C2
:100BD000FC01F091FD0130E020E0B0E0A0E03097B2
:100BE00099F42115310509F44AC0281B390B24302A
:100BF0003105D8F58A819B816115710589F1FB0169
:100C000093838283FE0111C040815181028113814F
:100C100048175907E0F04817590799F4109761F001
:100C200012960C93129713961C933296CF01DF9174
:100C3000CF911F910F9108950093FC011093FD0136
:100C4000F4CF2115310551F04217530738F0A901AF
:100C5000DB019A01BD01DF01F801C1CFEF01F9CF3E
:100C60009093FD018093FC01CDCFFE01E20FF31FB5
:100C7000819391932250310939832883D7CF2091D2
:100C8000FA013091FB01232B41F4209102013091B4
:100C900003013093FB012093FA0120910001309170
:100CA00001012115310541F42DB73EB740910401F2
:100CB00050910501241B350BE091FA01F091FB01E5
:100CC000E217F307A0F42E1B3F0B2817390778F023
:100CD000AC014E5F5F4F2417350748F04E0F5F1F82
:100CE0005093FB014093FA01819391939FCFF0E0E1
:100CF000E0E09CCFCF93DF930097E9F0FC013297BF
:100D000013821282A091FC01B091FD01ED0130E04F
:100D100020E01097A1F420813181820F931F209150
:100D2000FA013091FB012817390709F061C0F093EF
:100D3000FB01E093FA01DF91CF910895EA01CE170C
:100D4000DF07E8F54A815B819E0141155105B1F746
:100D5000E901FB83EA8349915991C40FD51FEC1730
:100D6000FD0761F4808191810296840F951FE9014E
:100D700099838883828193819B838A83F0E0E0E07A
:100D800012968D919C9113970097B9F52D913C91F6
:100D90001197CD010296820F931F2091FA01309195
:100DA000FB012817390739F6309751F51092FD01EC
:100DB0001092FC01B093FB01A093FA01BCCFD38346
:100DC000C28340815181840F951FC817D90761F4F0
:100DD0004E5F5F4F88819981480F591F518340832F
:100DE0008A819B81938382832115310509F0B0CFDD
:100DF000F093FD01E093FC019ECFFD01DC01C0CF2B
:100E000013821282D7CFB0E0A0E0E9E0F7E00C94C3
:100E100094058C01009751F4CB010E94DE058C01F2
:100E2000C801CDB7DEB7E0E10C94B005FC01E60FD8
:100E3000F71F9C0122503109E217F30708F49DC007
:100E4000D901CD91DC911197C617D70798F0C5301D
:100E5000D10530F3CE0104978617970708F3C61B18
:100E6000D70B2297C193D1936D937C93CF010E94AE
:100E70007A06D6CF5B01AC1ABD0A4C018C0E9D1EC2
:100E8000A091FC01B091FD01512C412CF12CE12CE1
:100E9000109731F58091FA019091FB018815990521
:100EA00009F05CC04616570608F058C08091000152
:100EB00090910101009741F48DB79EB740910401D4
:100EC00050910501841B950BE817F90708F055C0F0
:100ED000F093FB01E093FA01F90171836083A0CFE5
:100EE0008D919C91119712966C90129713967C900D
:100EF0001397A815B90559F56C0142E0C40ED11C31
:100F0000CA14DB0420F1AC014A195B09DA0112961C
:100F1000159780F06282738251834083D9016D936B
:100F20007C93E114F10471F0D7011396FC93EE93D6
:100F3000129776CF22968C0F9D1FF90191838083A3
:100F4000F301EFCFF093FD01E093FC0169CF481668
:100F5000590608F42C017D01D3019ACFCB010E94E0
:100F6000DE057C01009749F0AE01B8010E94C00780
:100F7000C8010E947A06870153CF10E000E050CFED
:100F8000FB01DC0102C001900D9241505040D8F7A6
:100F90000895FB01DC0101900D920020E1F7089516
:040FA000F894FFCFF3
:100FA4000000FE0180000000000067018700B4001B
:100FB400B4012501C300D7000D0A004445534C4930
:100FC40047414E444F20544F444153204153204CF9
:100FD400454453004445534C4947414E444F204CEB
:040FE4004544200060
:00000001FF
