:100000000C945D000C9485000C9485000C94850084
:100010000C9485000C9485000C9485000C9485004C
:100020000C9485000C9485000C9485000C9485003C
:100030000C9485000C9485000C9485000C9485002C
:100040000C9441020C9485000C94B1020C948B0228
:100050000C9485000C9485000C9485000C9485000C
:100060000C9485000C94850000000008000201003B
:100070000003040700000000000000000000000072
:10008000250028002B0000000000240027002A0083
:10009000040404040404040402020202020203032E
:1000A0000303030301020408102040800102040836
:1000B0001020010204081020080411241FBECFEFF5
:1000C000D8E0DEBFCDBF21E0A4E2B1E001C01D92C7
:1000D000AA3DB207E1F711E0A0E0B1E0EEEAF8E0F6
:1000E00002C005900D92A432B107D9F710E0CDE51A
:1000F000D0E004C02197FE010E944F04CC35D10707
:10010000C9F70E94E3020C9455040C940000AF92CE
:10011000BF92CF92DF92EF92FF920F931F93CF93F4
:10012000DF936C017B018B01040F151FEB015E0156
:10013000AE18BF08C017D10759F06991D601ED91EB
:10014000FC910190F081E02DC6010995892B79F78A
:10015000C501DF91CF911F910F91FF90EF90DF903C
:10016000CF90BF90AF900895FC01538D448D252F03
:1001700030E0842F90E0821B930B541710F0CF9641
:10018000089501970895FC01918D828D981761F073
:10019000A28DAE0FBF2FB11D5D968C91928D9F5F8A
:1001A0009F73928F90E008958FEF9FEF0895FC0169
:1001B000918D828D981731F0828DE80FF11D858D1C
:1001C00090E008958FEF9FEF08952FB7F8948091F6
:1001D000390190913A01A0913B01B0913C012FBFB0
:1001E0008093450190934601A0934701B093480145
:1001F0008DE391E00E94D70097FF26C02FB7F894B7
:100200008091390190913A01A0913B01B0913C015C
:100210002FBF409145015091460160914701709177
:100220004801841B950BA60BB70B409141015091DF
:100230004201609143017091440184179507A6071C
:10024000B707B0F28FEF9FEF0895FC01918D228DDB
:10025000892F90E0805C9F4F821B91098F739927B3
:1002600008958DE391E00E94250121E0892B09F496
:1002700020E0822F089580E090E0892B29F00E94F1
:10028000310181110C9400000895FC01A48DA80F88
:10029000B92FB11DA35ABF4F2C91848D90E00196C8
:1002A0008F739927848FA689B7892C93A089B189E8
:1002B0008C91837080648C93938D848D981306C089
:1002C0000288F389E02D80818F7D80830895EF92ED
:1002D000FF920F931F93CF93DF93EC0181E0888F00
:1002E0009B8D8C8D98131AC0E889F989808185FFD0
:1002F00015C09FB7F894EE89FF896083E889F98972
:1003000080818370806480839FBF81E090E0DF9173
:10031000CF911F910F91FF90EF900895F62E0B8DC6
:1003200010E00F5F1F4F0F731127E02E8C8D8E1181
:100330000CC00FB607FCFACFE889F989808185FFE8
:10034000F5CFCE010E944501F1CFEB8DEC0FFD2FD3
:10035000F11DE35AFF4FF0829FB7F8940B8FEA89A3
:10036000FB8980818062CFCFCF93DF93EC01888DB2
:100370008823B9F0AA89BB89E889F9898C9185FD20
:1003800003C0808186FD0DC00FB607FCF7CF8C91AE
:1003900085FFF2CF808185FFEDCFCE010E94450120
:1003A000E9CFDF91CF91089590E0FC01E859FF4F2C
:1003B0002491FC01EC55FF4F3491FC01E057FF4FB5
:1003C000E491EE23C9F0222339F0233001F1A8F49F
:1003D000213019F1223029F1F0E0EE0FFF1FE4582F
:1003E000FF4FA591B4918FB7F894EC91611126C09D
:1003F00030953E233C938FBF08952730A9F02830D5
:10040000C9F0243049F7809180008F7D03C080912E
:1004100080008F7780938000DFCF84B58F7784BD95
:10042000DBCF84B58F7DFBCF8091B0008F77809339
:10043000B000D2CF8091B0008F7DF9CF3E2BDACFC4
:10044000CF93DF93D0E0C0E0009771F0FC01019002
:100450000020E9F73197AF01481B590BBC018DE330
:1004600091E00E948700EC0142E050E062E171E01F
:100470008DE391E00E9487008C0F9D1FDF91CF914B
:1004800008951F920F920FB60F9211242F933F934E
:100490008F939F93AF93BF938091390190913A01CD
:1004A000A0913B01B0913C013091380123E0230F32
:1004B0002D3758F50196A11DB11D20933801809369
:1004C000390190933A01A0933B01B0933C01809194
:1004D000340190913501A0913601B0913701019618
:1004E000A11DB11D8093340190933501A093360175
:1004F000B0933701BF91AF919F918F913F912F9111
:100500000F900FBE0F901F90189526E8230F0296AC
:10051000A11DB11DD2CF1F920F920FB60F921124C1
:100520002F933F934F935F936F937F938F939F93FB
:10053000AF93BF93EF93FF938DE391E00E9445014A
:10054000FF91EF91BF91AF919F918F917F916F91AB
:100550005F914F913F912F910F900FBE0F901F9081
:1005600018951F920F920FB60F9211242F938F930D
:100570009F93EF93FF93E0914D01F0914E018081A5
:10058000E0915301F091540182FD1BC09081809154
:1005900056018F5F8F7320915701821741F0E091D0
:1005A0005601F0E0E35CFE4F958F80935601FF917A
:1005B000EF919F918F912F910F900FBE0F901F90F1
:1005C00018958081F4CF789484B5826084BD84B519
:1005D000816084BD85B5826085BD85B5816085BD3E
:1005E00080916E00816080936E00109281008091F6
:1005F000810082608093810080918100816080937E
:100600008100809180008160809380008091B100A2
:1006100084608093B1008091B00081608093B000CD
:1006200080917A00846080937A0080917A00826061
:1006300080937A0080917A00816080937A00809123
:100640007A00806880937A001092C100E0914D0199
:10065000F0914E0182E08083E0914901F0914A01DE
:100660001082E0914B01F0914C018FEC808310924D
:100670005501E0915101F091520186E08083E091B3
:100680004F01F0915001808180618083E0914F01A2
:10069000F0915001808188608083E0914F01F0915A
:1006A0005001808180688083E0914F01F09150017A
:1006B00080818F7D808330E020E0F901EC55FF4F91
:1006C0004491F901E057FF4F8491882399F090E01D
:1006D000880F991FFC01EA57FF4FA591B491FC01C7
:1006E000E458FF4F859194918FB7F894EC91E42BE7
:1006F000EC938FBF2F5F3F4F28303105F1F601E0BB
:1007000010E0C0E0D0E08DE391E00E942501892B4C
:1007100009F45DC00E94E500FC0197FD6BC08D32BD
:10072000910521F0C0970A9708F05CC0C12CD12C2C
:100730007601B12CE130F105D9F0ED32F10509F483
:1007400056C0CF01C0970A9798F4AAE0B0E0A7017D
:1007500096010E9435046F01FF0FEE08FF08C60ED8
:10076000D71EE81EF91E80E3C81AD108E108F10877
:100770008DE391E00E94C3000E94E500FC01C09758
:100780000A97C0F2E130F105A9F2BB2041F0F094E4
:10079000E094D094C094C11CD11CE11CF11C560102
:1007A0008FEFA81AB80AF601EE0FFF1FEC5DFE4F9F
:1007B00080819181892B11F51183008361E08C2D5B
:1007C0000E94D401C501885E9E4F0E94200220979E
:1007D00009F499CF0E943101882309F494CF0E9433
:1007E000000091CF8DE391E00E94C30093CFBB2422
:1007F000B394BECFC12CD12C7601D1CF11821082FF
:1008000060E08C2D0E94D401C5018B5E9E4FDDCF30
:10081000EDE3F1E01382128288EE93E0A0E0B0E015
:1008200084839583A683B78384E091E0918380835A
:1008300085EC90E09587848784EC90E097878687A5
:1008400080EC90E0918B808B81EC90E0938B828B9D
:1008500082EC90E0958B848B86EC90E0978B868B76
:10086000118E128E138E148E08950E944004A59F3F
:10087000900DB49F900DA49F800D911D112408959B
:10088000A29FB001B39FC001A39F700D811D1124D1
:10089000911DB29F700D811D1124911D0895EE0FC1
:0E08A000FF1F0590F491E02D0994F894FFCF0E
:1008AE000000000067018700B400B4012501C300F9
:1008BE00D7000D0A004445534C49474152204C4540
:0408CE004420300092
:00000001FF
