:100000000C945D000C9485000C9485000C94850084
:100010000C9485000C9485000C9485000C9485004C
:100020000C9485000C9485000C9485000C9485003C
:100030000C9485000C9485000C9485000C9485002C
:100040000C942D020C9485000C949D020C94770264
:100050000C9485000C9485000C9485000C9485000C
:100060000C9485000C94850000000008000201003B
:100070000003040700000000000000000000000072
:10008000250028002B0000000000240027002A0083
:10009000040404040404040402020202020203032E
:1000A0000303030301020408102040800102040836
:1000B00010200102040810205A0411241FBECFEFA3
:1000C000D8E0DEBFCDBF21E0A0E2B1E001C01D92CB
:1000D000A63DB207E1F711E0A0E0B1E0E6E9F9E002
:1000E00002C005900D92A032B107D9F710E0CDE51E
:1000F000D0E004C02197FE010E94C304CC35D10793
:10010000C9F70E94CF020C94C9040C940000AF926E
:10011000BF92CF92DF92EF92FF920F931F93CF93F4
:10012000DF936C017B018B01040F151FEB015E0156
:10013000AE18BF08C017D10759F06991D601ED91EB
:10014000FC910190F081E02DC6010995892B79F78A
:10015000C501DF91CF911F910F91FF90EF90DF903C
:10016000CF90BF90AF900895FC01538D448D252F03
:1001700030E0842F90E0821B930B541710F0CF9641
:10018000089501970895FC01918D828D981761F073
:10019000A28DAE0FBF2FB11D5D968C91928D9F5F8A
:1001A0009F73928F90E008958FEF9FEF0895FC0169
:1001B000918D828D981731F0828DE80FF11D858D1C
:1001C00090E008958FEF9FEF08952FB7F8948091F6
:1001D000350190913601A0913701B09138012FBFC0
:1001E0008093410190934201A0934301B093440155
:1001F00089E391E00E94D70097FF26C02FB7F894BB
:100200008091350190913601A0913701B09138016C
:100210002FBF409141015091420160914301709183
:100220004401841B950BA60BB70B40913D015091E7
:100230003E0160913F017091400184179507A60728
:10024000B707B0F28FEF9FEF0895FC01918D228DDB
:10025000892F90E0805C9F4F821B91098F739927B3
:10026000089589E391E00E94250121E0892B09F49A
:1002700020E0822F089580E090E0892B29F00E94F1
:10028000310181110C9400000895FC01A48DA80F88
:10029000B92FB11DA35ABF4F2C91848D90E00196C8
:1002A0008F739927848FA689B7892C93A089B189E8
:1002B0008C91837080648C93938D848D981306C089
:1002C0000288F389E02D80818F7D80830895EF92ED
:1002D000FF920F931F93CF93DF93EC0181E0888F00
:1002E0009B8D8C8D98131AC0E889F989808185FFD0
:1002F00015C09FB7F894EE89FF896083E889F98972
:1003000080818370806480839FBF81E090E0DF9173
:10031000CF911F910F91FF90EF900895F62E0B8DC6
:1003200010E00F5F1F4F0F731127E02E8C8D8E1181
:100330000CC00FB607FCFACFE889F989808185FFE8
:10034000F5CFCE010E944501F1CFEB8DEC0FFD2FD3
:10035000F11DE35AFF4FF0829FB7F8940B8FEA89A3
:10036000FB8980818062CFCFCF93DF93EC01888DB2
:100370008823B9F0AA89BB89E889F9898C9185FD20
:1003800003C0808186FD0DC00FB607FCF7CF8C91AE
:1003900085FFF2CF808185FFEDCFCE010E94450120
:1003A000E9CFDF91CF91089590E0FC01E859FF4F2C
:1003B0002491FC01EC55FF4F3491FC01E057FF4FB5
:1003C000E491EE23C9F0222339F0233001F1A8F49F
:1003D000213019F1223029F1F0E0EE0FFF1FE4582F
:1003E000FF4FA591B4918FB7F894EC91611126C09D
:1003F00030953E233C938FBF08952730A9F02830D5
:10040000C9F0243049F7809180008F7D03C080912E
:1004100080008F7780938000DFCF84B58F7784BD95
:10042000DBCF84B58F7DFBCF8091B0008F77809339
:10043000B000D2CF8091B0008F7DF9CF3E2BDACFC4
:10044000FC0101900020E9F73197AF01481B590BDF
:10045000BC0189E391E00C9487001F920F920FB6C4
:100460000F9211242F933F938F939F93AF93BF933A
:100470008091350190913601A0913701B0913801FA
:100480003091340123E0230F2D3758F50196A11D3B
:10049000B11D209334018093350190933601A093D0
:1004A0003701B09338018091300190913101A091D2
:1004B0003201B09133010196A11DB11D809330012D
:1004C00090933101A0933201B0933301BF91AF916A
:1004D0009F918F913F912F910F900FBE0F901F9082
:1004E000189526E8230F0296A11DB11DD2CF1F92A9
:1004F0000F920FB60F9211242F933F934F935F9358
:100500006F937F938F939F93AF93BF93EF93FF93DB
:1005100089E391E00E944501FF91EF91BF91AF9176
:100520009F918F917F916F915F914F913F912F910B
:100530000F900FBE0F901F9018951F920F920FB63D
:100540000F9211242F938F939F93EF93FF93E0913A
:100550004901F0914A018081E0914F01F0915001F1
:1005600082FD1BC09081809152018F5F8F7320911B
:100570005301821741F0E0915201F0E0E75CFE4F39
:10058000958F80935201FF91EF919F918F912F91C1
:100590000F900FBE0F901F9018958081F4CFCF93CE
:1005A000DF93CDB7DEB7A1970FB6F894DEBF0FBECD
:1005B000CDBF789484B5826084BD84B5816084BDEC
:1005C00085B5826085BD85B5816085BD80916E00F1
:1005D000816080936E001092810080918100826022
:1005E000809381008091810081608093810080915F
:1005F00080008160809380008091B100846080934E
:10060000B1008091B00081608093B00080917A0049
:10061000846080937A0080917A00826080937A006F
:1006200080917A00816080937A0080917A0080685E
:1006300080937A001092C100E0914901F0914A0143
:1006400082E08083E0914501F09146011082E091C3
:100650004701F09148018FEC808310925101E091A5
:100660004D01F0914E0186E08083E0914B01F091C5
:100670004C01808180618083E0914B01F0914C01BD
:10068000808188608083E0914B01F0914C018081F2
:1006900080688083E0914B01F0914C0180818F7DD7
:1006A000808330E020E0F901EC55FF4F4491F901DF
:1006B000E057FF4F8491882399F090E0880F991FAD
:1006C000FC01EA57FF4FA591B491FC01E458FF4F9C
:1006D000859194918FB7F894EC91E42BEC938FBFB4
:1006E0002F5F3F4F29303105F1F62AE0822E912C01
:1006F000A12CB12C89E391E00E942501892B09F4FA
:10070000ABC00E94E500FC0197FDBAC08D32910597
:1007100021F0C0970A9708F0ACC0C12CD12C76010B
:1007200010E0E130F105D9F0ED32F10509F4A6C091
:10073000CF01C0970A9798F4AAE0B0E0A70196010C
:100740000E9487046F01FF0FEE08FF08C60ED71E38
:10075000E81EF91E80E3C81AD108E108F10889E310
:1007600091E00E94C3000E94E500FC01C0970A9737
:10077000C0F2E130F105A9F2112341F0F094E094C8
:10078000D094C094C11CD11CE11CF11C3601F601AF
:10079000EE0FFF1FE05EFE4F20803180032C000C27
:1007A0004408550857FE70C06DE289E391E00E944D
:1007B000670122273327A901221933094409550962
:1007C00019A28E010F5D1F4FCA01B901A501940145
:1007D0000E94A104605DF80162938F01211531052B
:1007E0004105510589F70115110519F0C8010E944D
:1007F000200282E191E00E9420028301000F111F7C
:10080000F801E05EFE4F80819181892B81F481E0C7
:1008100090E09183808361E08C2D0E94D40188E177
:1008200091E00E94200282E191E00E942002F80102
:10083000E05EFE4F80819181019771F411821082F8
:1008400060E08C2D0E94D40185E191E00E9420029D
:1008500082E191E00E942002E0E0F0E0EF2B09F459
:1008600049CF0E943101882309F444CF0E9400003F
:1008700041CF89E391E00E94C30043CF11E06FCFE5
:10088000C12CD12C760182CFA201910119A28E0137
:100890000F5D1F4FCA01B901A50194010E94A10477
:1008A000605DF80162938F01211531054105510505
:1008B00089F799CFE9E3F1E01382128288EE93E0A1
:1008C000A0E0B0E084839583A683B78384E091E0C1
:1008D0009183808385EC90E09587848784EC90E019
:1008E0009787868780EC90E0918B808B81EC90E0FD
:1008F000938B828B82EC90E0958B848B86EC90E0DE
:10090000978B868B118E128E138E148E08950E94F3
:100910009204A59F900DB49F900DA49F800D911DF2
:1009200011240895A29FB001B39FC001A39F700D31
:10093000811D1124911DB29F700D811D1124911DE7
:100940000895A1E21A2EAA1BBB1BFD010DC0AA1F10
:10095000BB1FEE1FFF1FA217B307E407F50720F028
:10096000A21BB30BE40BF50B661F771F881F991FA3
:100970001A9469F760957095809590959B01AC01EC
:10098000BD01CF010895EE0FFF1F0590F491E02DFA
:060990000994F894FFCF6A
:100996000000000067018700B400B4012501C30010
:1009A600D7000D0A004445534C4947414E444F0079
:00000001FF
